:020000001D2CB5
:1000060083120313FB01FA01F9018030F800F10CA9
:10001600F00C031C17287408F90775080318750FE8
:10002600FA070318FB0A0310F01F1F287408FA07C3
:1000360075080318750FFB07FB0CFA0CF90CF80C86
:10004600031C0A287B08F3007A08F2007908F100FD
:060056007808F00008002C
:10005C00831603136408393C031C3B2830306402BC
:0E006C00031C3B280130F0003C28F001080086
:10007A00831603135D0884000008DE00DF010030E8
:10008A00DF0000305F06031D4C2820305E0603198E
:10009A00572800305F06031D542809305E060319ED
:1000AA0057285928DD0A3D28E001E101E201E30170
:1000BA0000305F06031D63282D305E06031D6A2883
:1000CA00E20A0319E30ADD0A732800305F06031DFA
:1000DA0070282B305E06031D7328DD0A5D08840034
:1000EA000008DE00DF010030DF005E08E4002E2099
:1000FA00700803199C286008F0006108F1000A30B2
:10010A00F4000030F5000320303083165E02F2005E
:10011A000030031C013E5F02F30072087007E00022
:10012A0071080318013E7307E100DD0A73286208AB
:10013A0063040319A9286008003CF0006108031C45
:10014A00013EF101F102AD286008F0006108F100FA
:02015A0008009B
:10015C00831603135D08831203178D0083168C130B
:0A016C000C1483120C08F0000800C8
:10017600103083160313DD00AE20700883160313B8
:0A018600CF007008DD003D200800E6
:10019000BB207008CE007008FF3A0319D428013044
:0E01A000F0000030F100D628F001F101080057
:0E01AE00213083120313FD00FD0BDB28080037
:1001BC000F3083120313FC004730FD00FD0BE428C5
:0A01CC00FC0BE4280000000008000E
:0601D6000000000008001B
:1001DC00C8207008710403190729BB200430F400EF
:1001EC007008F2007108F300740803190229F20D6B
:1001FC00F30D7210FF3EFB287208F0007308F1003B
:0C020C000B291030F0000030F100080059
:100218008030831603135C06F00080307002031DE3
:100228001729A0305B02031C1C29F001F1012029C9
:0A0238000130F0000030F100080072
:1002420083160313DB1B2829831288112A298312A0
:10025200881583165B1B30298312081132298312F9
:1002620008158316DB1A3829831288103A2983125B
:10027200881483165B1A40298312081042298312BC
:100282000814831650184829831208164A29831223
:1002920008128816EB2088128316DB195329831261
:1002A200881155298312881583165B195B298312DD
:1002B20008115D29831208158316DB18632983123E
:1002C200881065298312881483165B186B298312A0
:1002D20008106D298312081483165018732983128B
:1002E20008167529831208128816EB2088128316C5
:0C02F200501C7D29DE207E29D72008004A
:0E02FE000030831203138C1A0130F000080048
:10030C00831203131A08F100981C8E291812181660
:06031C007108F00008006A
:100322008316031350105808DB0021218316501442
:020332000800C1
:10033400831603178C1CA02900009A29031358085C
:10034400831203178D0083160313590883120317AE
:100354008C0083168C130C150B08F0008B1355308E
:100364008D00AA308D008C14F01BBA298B13BB2985
:060374008B170C110800BC
:10037A00831603135A08F000DA0370080319E529F3
:10038A00580884000008003A0319D629590884003D
:10039A000008F1005808840000087106031DD629D8
:1003AA00E229580884000008F0005908840000086F
:1003BA00F002F101031CF103E729D80AD90ABD2981
:0603CA00F001F101080042
:1003D000831603135808F2007208F000F20A70083E
:1003E000840000080319F529EC2958087202F0006E
:0C03F0000130F002F101031CF1030800D1
:1003FC0083120313EE01EF010D30FC00FB30FD0006
:10040C00FD0B062AFC0B062A000000007F21700859
:10041C0003191D2A862170088316D10083126E08D9
:10042C00B83E840070088000EE0A0319EF0A0D3004
:10043C00FC00FB30FD00FD0B212AFC0B212A0000E7
:10044C0000007F217008031D342A00306F06031D45
:10045C00312A00306E060319342A352A022A080084
:10046C00EE207008DB007108DC000C2170087104B0
:10047C000319462AEE201030F0070318F10A482A17
:06048C00F001F10108007F
:10049200831603135808840000085906031D542AC2
:1004A2005808F0005F2A5808F000D80A7008840043
:0E04B2000008F0007008031D492AF001080040
:1004C000362200307106031D672A003070060319BA
:1004D0009D2A36227008CA0771080318013ECB070F
:1004E000FE218316C801C9018030F0008030490622
:1004F0007002031D7D2A48080F3C031C8D2A480802
:100500004A07D8004808B83E84000008D9009A215C
:100510000313C80A0319C90A742ABB207008CC0047
:100520007108CD00F00A0319F10A7008CC007108B7
:0C053000CD00D8017008D9009A21080005
:10053C00831603135408840000080319B22A5408C4
:10054C0084000008F1005508840071080006031DA2
:10055C00B22AD40AD50A9E2A540884000008F00056
:10056C00550884000008F002F101031CF103080097
:10057C00D02A803083160313D400E32AC030D40071
:10058C00E32A9430D400E32AD430D400E32A803018
:10059C00D400E32A831603135408013A0319BF2A23
:1005AC005408023A0319C42A5408033A0319C72AF7
:1005BC005408043A0319CA2ACD2A5503F0005408EA
:1005CC00F0077008D4007008DB002121831650104E
:1005DC00D70157085607840000080319FD2A57084D
:1005EC00560784000008D8009121D70AEF2A50142E
:0205FC000800F5
:0E05FE008316031353088A0052088200080077
:10060C00831603135408003A0319302B5408840042
:10061C0000080319302B5508D800E8217008DA00BF
:10062C005408D8005508D900BD2100307106031DAF
:10063C00212B00307006031D262B5408F000312BA3
:10064C00540AD800550884000008D90049227008C3
:08065C00D400062BF001080098
:10066400831603135408F2005608F0005708F100EB
:100674000130D602031CD703700871040319482BF8
:100684007208840055088000F20A362B5408F000E2
:0206940008005C
:10069600B83083160313D4004630D50006237008FD
:1006A600D4004230D5009E2200307106031D5D2B1A
:1006B60000307006031DB12BB830D4002C30D500A5
:1006C60006237008D6000230D4000130D500BE22C1
:1006D60083160313B830D4002630D50006237008DD
:1006E600D4002030D5009E2200307106031D7D2BDC
:1006F600003070060319B12BFE21B8308316D400E2
:100706003030D50006237008D4003C30D5009E2238
:1007160000307106031D912B00307006031DB02BAF
:100726000130DB002121B8308316D4003630D500E5
:1007360006237008D6000230D4000130D500BE2250
:10074600B830D400D5011030D6000030D70032239F
:0E0756000130DB0021216022B12B6B2B08004B
:100764008316031398169030831298008316871704
:10077400071383128C1EC12B1A08F000BB2B080030
:10078400FF228A110A128000840AD20A0319D30AAA
:08079400F003031DC22B080055
:10079C008316031388120812081088100811881188
:1007AC008312881208128811081188100810DE2094
:1007BC00DE20DE20881408148816EB208812DE2038
:1007CC008816EB208812DE208816EB208812DE209B
:1007DC0008108816EB208812DE208816EB20881271
:1007EC00881088158816EB208812DE2088110814D2
:1007FC008816EB20881208108816EB208812DE2051
:10080C008816EB20881208148816EB208812DE203C
:10081C0008108816EB2088128815081588140814FF
:0E082C008816EB208812DE2083165014080078
:10083A003E25CE230C30DB00212101308316DB005C
:10084A002121031787138813333083160313990062
:10085A001815B2230D30FC00FB30FD00FD0B332CC4
:10086A00FC0B332C000000008316CA01CB01C8011F
:10087A00C9010130D4000130D500B830D600BE22FB
:10088A00FE2101308316DB00212101308316D400BA
:10089A000130D500B830D600BE224B23B8308316BB
:1008AA000313D400A030D50006237008D400B23058
:1008BA00D5009E2200307106031D652C003070069B
:1008CA00031DAA2CB830D400AC30D500062370081A
:1008DA00D6000230D4000130D500BE22B830D40090
:1008EA00A630D50006237008D4006830D5009E22B1
:1008FA0000307106031D832C003070060319AA2CE0
:10090A00FE21B8308316D4005630D500062370086D
:10091A00D4005030D5009E2200307106031D972C5A
:10092A0000307006031DA92C0130DB002121B830EC
:10093A008316D4004A30D50006237008D600023048
:10094A00D4000130D500BE22732CB830D4005C30FC
:10095A00D50006237008D4006430D5009E220030EA
:10096A007106031DBA2C00307006031DC82CB8305E
:10097A00D4006030D50006237008D6000230D400B7
:10098A000130D500BE22B830D400D5011030D600CF
:0A099A000030D70032233E2CD12C90
:100A7C00203084004E3083120313F000D7308316DD
:100A8C00D2000430D300C223A030840018300313EA
:100A9C00F00025308316D2000530D300C2230800A5
:0C09AE0053345434413452345434003477
:0C09BA005334543441345234543400346B
:0809C600413444344434003490
:0C09CE0053345434413452345434003457
:0C09DA005334543441345234543400344B
:0C09E6005334543441345234543400343F
:0809F200413444344434003464
:0809FA0041344434443400345C
:0C0A020053345434413452345434003422
:0C0A0E0053345434413452345434003416
:0C0A1A005334543441345234543400340A
:080A260045344E344434003421
:080A2E0045344E344434003419
:080A360045344E344434003411
:0C0A3E00533454344134523454340034E6
:0C0A4A00453452344134533445340034F8
:0C0A5600533454344134523454340034CE
:0C0A6200453452344134533445340034E0
:0C0A6E00453452344134533445340034D4
:04400E00F22F000786
:00000001FF
