:020000006D2A67
:06000600000000000800EC
:0E000C00213083120313FD00FD0B0A280800AB
:10001A000F3083120313FC004730FD00FD0B132839
:0A002A00FC0B132800000000080082
:1000340083160313DB1B21288312881123288312C0
:10004400881583165B1B2928831208112B28831219
:1000540008158316DB1A312883128810332883127B
:10006400881483165B1A3928831208103B288312DC
:10007400081483164F184128831208164328831244
:1000840008128816032088128316DB194C28831261
:1000940088114E288312881583165B1954288312FD
:1000A40008115628831208158316DB185C2883125E
:1000B40088105E288312881483165B1864288312C0
:1000C400081066288312081483164F186C288312AC
:1000D40008166E28831208128816032088128316C5
:0C00E4004F1C76280D207728062008000D
:1000F000831603135808840000085906031D83283B
:100100005808F0008E285808F000D80A70088400BB
:0E0110000008F0007008031D7828F0010800B8
:10011E00831603135A08F000DA0370080319B72880
:10012E00580884000008003A0319A82859088400CA
:10013E000008F1005808840000087106031DA82865
:10014E00B428580884000008F000590884000008FC
:10015E00F002F101031CF103B928D80AD90A8F283D
:06016E00F001F1010800A0
:10017400831603135808F2007208F000F20A70089C
:10018400840000080319C728BE2858087202F0002A
:0C0194000130F002F101031CF10308002F
:1001A000831203131A08F100981CD8281812181685
:0601B0007108F0000800D8
:0E01B6008316031353088A00520882000800C3
:0E01C4000030831203138C1A0130F000080083
:1001D200831603134F105808DB001A2083164F149E
:0201E200080013
:1001E400831603135408003A03191C295408840085
:1001F400000803191C295508D800BA207008DA0031
:100204005408D8005508D9008F2000307106031D0A
:100214000D2900307006031D12295408F0001D2911
:10022400540AD800550884000008D90078207008C2
:08023400D400F228F0010800DB
:10023C008316031354088400000803193229540848
:10024C0084000008F1005508840071080006031DA5
:10025C003229D40AD50A1E29540884000008F0005B
:10026C00550884000008F002F101031CF10308009A
:10027C005029803083160313D4006329C030D40076
:10028C0063299430D4006329D430D400632980309E
:10029C00D4006329831603135408013A03193F2928
:1002AC005408023A031944295408033A03194729FC
:1002BC005408043A03194A294D295503F0005408EF
:1002CC00F0077008D4007008DB001A2083164F105A
:1002DC00D701570856078400000803197D295708D1
:1002EC00560784000008D800E920D70A6F294F145C
:0202FC000800F8
:1002FE00831603178C1C852900007F2903135408CD
:10030E00831203178D0083160313550883120317E8
:10031E008C0083168C130C150B08F0008B135530C4
:10032E008D00AA308D008C14F01B9F298B13A029F1
:06033E008B170C110800F2
:10034400831603135408831203178D0083168C132A
:0A0354000C1483120C08F0000800DE
:10035E00DB208A110A128000840AD20A0319D30AFA
:08036E00F003031DAF29080094
:1003760083160313B801B9010D30FC00FB30FD00F4
:10038600FD0BC329FC0BC32900000000E220700806
:100396000319D929D02070088316BA003808BF3E41
:1003A600840070088000B80A0319B90A0D30FC00F1
:1003B600FB30FD00FD0BDD29FC0BDD2900000000F4
:1003C600E2207008031DF129003083163906031D4B
:1003D600EE29003038060319F129F229BF29080051
:1003E6008316031388120812081088100811881142
:1003F60083128812081288110811881008100D201F
:100406000D200D20881408148816032088120D204C
:100416008816032088120D208816032088120D20C6
:1004260008108816032088120D20881603208812CB
:10043600881088158816032088120D208811081444
:1004460088160320881208108816032088120D20AB
:1004560088160320881208148816032088120D2097
:1004660008108816032088128815081588140814A1
:0E0476008816032088120D2083164F140800EC
:10048400831603135408F2007208F100F20A5508A7
:10049400F000D50A700884000008F0007108840098
:1004A4007008800071088400000803195A2A462A3B
:0604B4005408F0000800EE
:1004BA0083160313981690308312980083168717B1
:1004CA00071383128C1E6C2A1A08F000662A080089
:1004DA002824F3210C30DB001A2001308316DB00BC
:1004EA001A2033308316990018155D220D30FC004E
:1004FA00FB30FD00FD0B7F2AFC0B7F2A0000000069
:10050A008316BD01BE01BB01BC01BB2101308316AC
:10051A000313DB001A2001308316D4000130D50002
:10052A00BF30D6003E21BF30D4004630D500F2207D
:10053A007008D4002A30D5001E2100307106031D30
:10054A00A82A00307006031D402BBF30D400263085
:10055A00D500F2207008D6000230D4000130D50050
:10056A003E21BF30D4002030D500F2207008D400DC
:10057A002E30D5001E2100307106031DC62A003018
:10058A0070060319402BBB21BF3083160313D40016
:10059A004030D500F2207008D4003A30D5001E2130
:1005AA0000307106031DDB2A00307006031D402B44
:1005BA000130DB001A20BF308316D4003430D50056
:1005CA00F2207008D6000230D4000130D5003E2156
:1005DA00BF30D4004A30D50042220130DB001A2055
:1005EA00BB2183160313BB01BC018030F0008030AD
:1005FA003C067002031D032B3B080F3C031C132B04
:10060A003B08103ED4003B08BF3E84000008D500DA
:10061A007F210313BB0A0319BC0AFA2ABD0A03196C
:10062A00BE0AD4013D08D5007F210313BB01BC01DA
:10063A0080303C06F00080307002031D262B1030FB
:10064A003B020318392B3B08103ED400A221700844
:10065A0083160313D1003B085007840070088000FA
:10066A00BB0A0319BC0A1D2B0130D4000130D50086
:10067A005008D6003E21BF30D4006A30D500F2209F
:10068A007008D400A030D5001E2100307106031D69
:10069A00502B00307006031D962BBF30D400B230A9
:1006AA00D500F2207008D6000230D4000130D500FF
:1006BA003E21BF30D400AC30D500F2207008D400FF
:1006CA00A630D5001E2100307106031D6E2B0030A6
:1006DA0070060319962BBB21BF3083160313D4006F
:1006EA006430D500F2207008D4005530D5001E21A0
:1006FA0000307106031D832B00307006031D952BF5
:10070A000130DB001A20BF308316D4004F30D500E9
:10071A00F2207008D6000230D4000130D5003E2104
:10072A005E2BBF30D4004B30D500F2207008D400C5
:10073A005B30D5001E2100307106031DA62B003048
:10074A007006031DB42BBF30D4006030D500F220F0
:10075A007008D6000230D4000130D5003E21BF30E7
:0C076A00D4005F30D50042228A2ABA2B4E
:1008500020308400503083120313F000C030831620
:10086000D2000330D300AF21A030840018308312AF
:100870000313F00010308316D2000430D300AF21F0
:0208800008006E
:0C078000533454344134523454340034A7
:08078C004134443444340034CC
:080794004134443444340034C4
:0C079C005334543441345234543400348B
:0C07A8005334543441345234543400347F
:0C07B40053345434413452345434003473
:0C07C00053345434413452345434003467
:0807CC0041344434443400348C
:0207D4000034EF
:0807D60045344E344434003474
:0C07DE0053345434413452345434003449
:0C07EA005334543441345234543400343D
:0807F60045344E344434003454
:0207FE000034C5
:0808000045344E344434003449
:0C0808005334543441345234543400341E
:0C08140045345234413453344534003430
:0C08200045345234413453344534003424
:0C082C00533454344134523454340034FA
:0C083800533454344134523454340034EE
:0C08440045345234413453344534003400
:04400E00F22F000786
:00000001FF
