:020000007A2E56
:1000060083120313FB01FA01F9018030F800F10CA9
:10001600F00C031C17287408F90775080318750FE8
:10002600FA070318FB0A0310F01F1F287408FA07C3
:1000360075080318750FFB07FB0CFA0CF90CF80C86
:10004600031C0A287B08F3007A08F2007908F100FD
:060056007808F00008002C
:10005C00831203174F08393C031C3B2830304F02E6
:0E006C00031C3B280130F0003C28F001080086
:06007A0000000000080078
:100080008312031748088D0083168C130C148312F7
:060090000C08F00008005E
:1000960083120317480884000008C900CA0100300B
:1000A600CA0000304A06031D5A28203049060319A3
:1000B600652800304A06031D6228093049060319DF
:1000C60065286728C80A4B28CB01CC01CD01CE0193
:1000D60000304A06031D71282D304906031D782875
:1000E600CD0A0319CE0AC80A812800304A06031D24
:1000F6007E282B304906031D8128C80A480884003B
:100106000008C900CA010030CA004908CF002E20E5
:1001160070080319AA284B08F0004C08F1000A30B1
:10012600F4000030F5000320303003174902F200D6
:100136000030031C013E4A02F30072087007CB0030
:1001460071080318013E7307CC00C80A81284D08C0
:100156004E040319B7284B08003CF0004C08031C5A
:10016600013EF101F102BB284B08F0004C08F100FA
:0201760008007F
:0E017800213083120313FD00FD0BC028080088
:100186000F3083120313FC004730FD00FD0BC92816
:0A019600FC0BC9280000000008005F
:1001A000103083120317C80040207008BA0070088E
:0601B000C8004B2008000E
:1001B60083120317C71BE22803138811E4280313CD
:1001C60088150317471BEA2803130811EC280313A5
:1001D60008150317C71AF22803138810F428031307
:1001E60088140317471AFA2803130810FC28031368
:1001F600081483166F18022983120816042983121D
:10020600081288163D2088120317C7190D290313F3
:1002160088110F2903138815031747191529031386
:1002260008111729031308150317C7181D290313E7
:1002360088101F2903138814031747182529031349
:10024600081027290313081483166F182D29831203
:1002560008162F298312081288163D208812831645
:0C0266006F1C3729C3203829BC20080079
:10027200831603136F10831203174408C700DB2091
:0602820083166F14080052
:10028800D0207008BD007008FF3A031950290130CA
:0E029800F0000030F1005229F001F1010800E1
:1002A600831203174408F2007208F000F20A70087D
:1002B6008400000803196029572944087202F000D7
:0C02C6000130F002F101031CF1030800FC
:1002D200831203174408840000084506031D74298D
:1002E2004408F0007F294408F000C40A7008840022
:0E02F2000008F0007008031D6929F0010800E3
:10030000831203174608F000C60370080319A829D2
:10031000440884000008003A03199929450884001C
:100320000008F1004408840000087106031D9929A3
:10033000A529440884000008F0004508840000084E
:10034000F002F101031CF103AA29C40AC50A80299D
:06035000F001F1010800BC
:100356008030831203174106F00080307002031DBF
:10036600B629A0304002031CBB29F001F101BF29C8
:0A0376000130F0000030F100080033
:10038000831203174008203A0319D12940080D3C75
:10039000031CCF2909304002031CCF29D129F001C9
:0803A000D3290130F000080030
:1003A8004421700871040319ED29D0200430F400A9
:1003B8007008F2007108F30074080319E829F20DB7
:1003C800F30D7210FF3EE1297208F0007308F10086
:0C03D800F1291030F0000030F1000800A6
:0E03E4000030831203138C1A0130F000080061
:1003F200831203131A08F100981C012A1812181606
:060402007108F000080083
:10040800831203174008003A03192E2A4008840073
:10041800000803192E2A4108C40053217008C60099
:100428004008C4004108C500802100307106031D42
:100438001F2A00307006031D242A4008F0002F2AC6
:10044800400AC400410884000008C50069217008FA
:08045800C000042AF0010800B5
:10046000831203174008840000080319442A400837
:1004700084000008F1004108840071080006031D93
:10048000442AC00AC10A302A400884000008F0004B
:10049000410884000008F002F101031CF103080088
:1004A000831203174008F2004208F0004308F100ED
:1004B0000130C202031CC303700871040319662AC9
:1004C0007208840041088000F20A542A4008F000B3
:0204D000080022
:1004D2007B2A803083120317C0008E2AC030C000EE
:1004E2008E2A9430C0008E2AD430C0008E2A8030EA
:1004F200C0008E2A831203174008013A03196A2AA0
:100502004008023A03196F2A4008033A0319722A73
:100512004008043A0319752A782A4103F00040087A
:10052200F0077008C0007008C700DB2083166F1048
:1005320083120317C301430842078400000803190A
:10054200AC2A4308420784000008C4003921831200
:0E0552000317C30A9C2A831603136F140800B4
:10056000831603178C1CB62A0000B02A8312400899
:100570008D0041088C0083168C130C150B08F000BD
:100580008B1355308D00AA308D008C14F01BCA2AB5
:0A0590008B13CB2A8B170C11080007
:10059A00163083120317C000FF30C1001030C200AA
:1005AA000030C300502283160313E901EA018030A8
:1005BA00F00080306A067002031DE52A69080F3CC4
:1005CA00031CFB2A6908831203171407C000831649
:1005DA0003136908163E8400000883120317C1003A
:1005EA00B0220313E90A0319EA0ADC2A0130EB02F2
:1005FA00031CEC0383120317C001831603136B0851
:0A060A0083120317C100B02208009C
:1006140083120317BB01BC011A30FC00F830FD0043
:10062400FD0B122BFC0B122B0000F2217008031996
:10063400272BF92170080317B9003B08273E8400D3
:1006440070088000BB0A0319BC0A1A30FC00F83099
:10065400FD00FD0B2B2BFC0B2B2B0000F221700853
:10066400031D3E2B003003173C06031D3B2B0030BB
:0C0674003B0603193E2B3F2B0E2B080009
:10068000273083120317C0002030C10004227008F5
:10069000C0002230C100302200307106031D522BF1
:1006A00000307006031D352C83160313ED01EE0197
:1006B00083120317900191010130920000309300E2
:1006C0000130C0000130C1002430C2006922E901BC
:1006D000EA01273083120317C400532180308316A8
:1006E00003136A06F200803071067202031D7A2B32
:1006F0007008690203180A2C6908273E8400000864
:1007000083120317CF002E20700803199E2B003090
:100710001306031D8D2B01301206031D9E2B83161D
:100720000313ED0A0319EE0A013083120317C00008
:100730000130C1002A30C2006922CD2B8316031379
:100740006908273E8400000883120317C000C021F7
:1007500070080319C12B831603136E086A06031D64
:10076000B32B69086D06031DC12B83120317920179
:1007700093010130C0000130C100C530C2006922C0
:10078000CD2B013083120317C0000130C100CC30E3
:10079000C2006922F001F101372C003083120317E7
:1007A0001306031DD52B00301206031D042C8316DF
:1007B00003136908273E8400000883120317CF0043
:1007C0002E2070080319012C0130C0000130C10037
:1007D000BF30C20069228312031710082607F100F8
:1007E000831603136908273E84000008F00071088F
:1007F00084007008800083120317900A0319910A7D
:10080000042CF001F101372C83160313E90A0319B4
:10081000EA0A692B831203172608C8004B20803090
:10082000033AF200803071067202031D192C700821
:10083000FF3C0318292C2608C8004B200030710605
:10084000031D242C003070060319292CF001F1013E
:10085000372C0130C0000130C100D330C200692202
:100860000130F0000030F100372CF001F1010800F8
:10087000D4217008C0007108C100AB217008710458
:100880000319482CD4211030F0070318F10A4A2C20
:06089000F001F101080077
:10089600273083120317C000C1011030C200003098
:1008A600C30050220A23163083120317C000C10169
:1008B6001030C2000030C3005022103094000030C7
:1008C600950080303C06F00080307002031D6D2CD0
:1008D6000A303B020318B32C83160313E901EA011D
:1008E6008030F00080306A067002031D7C2C690897
:1008F6000F3C031C912C6908831203171407C800C8
:1009060040207008BA00831603136908163E840057
:1009160070088000E90A0319EA0A732C273083124B
:100926000317C0001630C10004227008C00016303C
:10093600C100302200307106031DA32C0030700662
:10094600031DAA2C1408BE001508BF00CD221030C6
:10095600831294070318950ABB0A0319BC0A642C70
:02096600080087
:10096800382400307106031DBB2C003070060319B3
:10097800182D38247008940771080318013E95074C
:100988000A2340230030831203137106031DCE2C63
:100998000030700603190F2D8316E901EA01803033
:1009A800F00080306A067002031DDC2C69080F3CD9
:1009B800031CF22C6908831203171407C00083165E
:1009C80003136908273E8400000883120317C10037
:1009D800B0220313E90A0319EA0AD32CD0207008BD
:1009E80083160313EB007108EC00F00A0319F10AEF
:1009F8007008EB007108EC0083120317C00170083F
:100A0800C100B02201308312C0000130C1006D3036
:100A1800C2006922182D013083120317C00001306B
:0A0A2800C100B030C20069220800CE
:0E0A32008312031738088A0037088200080074
:100A40008316031398169030831298008316871725
:100A5000071383128C1E2F2D1A08F000292D080071
:100A600083160313881208120810881008118811C1
:100A70008312881208128811081188100810C320E8
:100A8000C320C3208814081488163D208812C32070
:100A900088163D208812C32088163D208812C32066
:100AA000081088163D208812C32088163D20881221
:100AB0008810881588163D208812C32088110814D4
:100AC00088163D208812081088163D208812C32001
:100AD00088163D208812081488163D208812C320ED
:100AE000081088163D2088128815081588140814E7
:0E0AF00088163D208812C32083166F1408005C
:100AFE00013083120317C700DB2027300317C00015
:100B0E00DD30C10004227008C000BB30C1003022AD
:100B1E0000307106031D952D00307006031DEC2D5F
:100B2E002730C000A030C10004227008C20002307D
:100B3E00C0000130C1006922273083120317C000A4
:100B4E00A430C10004227008C0006130C100302200
:100B5E0000307106031DB52D003070060319EC2D03
:100B6E000A23273083120317C0006730C100042206
:100B7E007008C000AA30C100302200307106031D7B
:100B8E00CA2D00307006031DEB2D0130C700DB208F
:100B9E0027300317C000B530C10004227008C20010
:100BAE000230C0000130C1006922273083120317C2
:100BBE00C000C1011030C2000030C300502201300D
:0C0BCE00C700DB20B424EC2DA32D080090
:100BDA0030250C3083120317C700DB2001300317BE
:100BEA00C700DB20031787138813333083160313D8
:100BFA009900181520250D30FC00FB30FD00FD0B77
:100C0A00042EFC0B042E000000000317940195012A
:0A0C1A0083160313E901EA01080044
:100C2400273083120317C0003D30C100042270082E
:100C3400C0004330C100302200307106031D242E51
:100C440000307006031D6D2E2730C0003130C10006
:100C540004227008C2000230C0000130C1006922C1
:100C6400273083120317C0003730C10004227008F4
:100C7400C0004930C100302200307106031D442EEB
:100C84000030700603196D2E0A23273083120317D0
:100C9400C0005530C10004227008C0005B30C100A0
:100CA400302200307106031D592E00307006031DDA
:100CB4006C2E0130C700DB2027300317C0004F30F3
:100CC400C10004227008C2000230C0000130C1001B
:080CD40069224B24322E0800B6
:100CDC0019258A110A128000840AB70A0319B80A66
:080CEC00F003031D6E2E080049
:100CF4006827ED25013083120317C0000130C100BD
:100D04002730C20069220A23013083120317C70067
:100D1400DB2001300317C0000130C1002730C200BE
:100D240069220330FC009730FD00FD0B972EFC0B6D
:100D3400972E000000007F2512262730C000E130E6
:100D4400C10004227008C000E530C1003022003028
:100D54007106031DAF2E00307006031DBD2E273013
:100D6400C000D930C10004227008C2000230C000A3
:100D74000130C1006922273083120317C000C1016A
:0E0D84001030C2000030C30050227C2EC82E5A
:100ED000203084004D3083120313F000CE3003170E
:100EE000B7000630B8006E26A03084001B30031314
:100EF000F00049300317B7000730B8006E266D3098
:100F0000840003300313F00064300317B700073088
:100F1000B8006E26BB3084002E300313F0001B3067
:0C0F20000317B7000730B8006E26080069
:040D9C0020340034CB
:040DA00020340034C7
:0C0DA400443445344234553447340034A4
:0E0DB000443445344234553447343234003430
:0C0DBE0045345234413453344534003481
:0C0DCA0053345434413452345434003457
:0C0DD60045345234413453344534003469
:0C0DE2004534523441345334453400345D
:0C0DEE0053345434413452345434003433
:0C0DFA0053345434413452345434003427
:0C0E06005334543441345234543400341A
:0C0E12005334543441345234543400340E
:0C0E1E0053345434413452345434003402
:0C0E2A00533454344134523454340034F6
:080E360041344434443400341B
:0C0E3E0044344534423455344734003409
:0E0E4A00443445344234553447343334003494
:0E0E5800443445344234553447343434003485
:0C0E6600443445344234553447340034E1
:080E720045344E3444340034D1
:080E7A004134443444340034D7
:080E820045344E3444340034C1
:080E8A0045344E3444340034B9
:080E92004134443444340034BF
:0C0E9A0053345434413452345434003486
:0C0EA6005334543441345234543400347A
:0A0EB200453452344F3452340034FA
:0C0EBC0053345434413452345434003464
:060EC8004F344B340034EE
:04400E00F22F000786
:00000001FF
