:020000005E2A76
:06000600000000000800EC
:10000C000F3083120313FC004730FD00FD0B0C284E
:0A001C00FC0B0C2800000000080097
:0E002600213083120313FD00FD0B1728080084
:1000340083160313D71B21288312881123288312C4
:1000440088158316571B2928831208112B2883121D
:1000540008158316D71A312883128810332883127F
:1000640088148316571A3928831208103B288312E0
:10007400081483164F184128831208164328831244
:1000840008128816032088128316D7194C28831265
:1000940088114E2883128815831657195428831201
:1000A40008115628831208158316D7185C28831262
:1000B40088105E28831288148316571864288312C4
:1000C400081066288312081483164F186C288312AC
:1000D40008166E28831208128816032088128316C5
:0C00E4004F1C7628062077281320080007
:1000F000831603135408F2007208F000F20A700825
:1001000084000008031985287C2854087202F00036
:0C0110000130F002F101031CF1030800B3
:10011C00831603135408840000085506031D992800
:10012C005408F000A4285408F000D40A7008840085
:0E013C000008F0007008031D8E28F001080076
:10014A00831603134F105408D7001A2083164F142E
:02015A0008009B
:10015C00831603135608F000D60370080319D6282B
:10016C00540884000008003A0319C7285508840075
:10017C000008F1005408840000087106031DC7280C
:10018C00D328540884000008F000550884000008A7
:10019C00F002F101031CF103D828D40AD50AAE28C9
:0601AC00F001F101080062
:1001B200831203131A08F100981CE128181218166A
:0601C2007108F0000800C6
:0E01C8000030831203138C1A0130F00008007F
:0E01D600831603133B088A003A0882000800D3
:1001E40083160313500884000008031906295008D5
:1001F40084000008F1005108840071080006031D02
:100204000629D00AD10AF228500884000008F00018
:10021400510884000008F002F101031CF1030800F6
:10022400831603135008003A03193C29500884002C
:10023400000803193C295108D40078207008D6001E
:100244005008D4005108D500AE2000307106031DBB
:100254002D2900307006031D32295008F0003D2975
:10026400500AD400510884000008D5008E2070087C
:08027400D0001229F00108007E
:10027C00831603135008F2005208F0005308F100E3
:10028C000130D202031CD3037008710403195429E2
:10029C007208840051088000F20A42295008F000CC
:0202AC00080048
:1002AE00831603178C1C5D29000057290313500871
:1002BE00831203178D00831603135108831203173D
:1002CE008C0083168C130C150B08F0008B13553015
:1002DE008D00AA308D008C14F01B77298B13782992
:0602EE008B170C11080043
:1002F40083160313B801B9010D30FC00FB30FD0077
:10030400FD0B8229FC0B822900000000E420700808
:1003140003199829D92070088316CE003808BE3EE8
:10032400840070088000B80A0319B90A0D30FC0073
:10033400FB30FD00FD0B9C29FC0B9C2900000000F8
:10034400E4207008031DB029003083163906031D0C
:10035400AD29003038060319B029B1297E290800D7
:10036400EB208A110A128000840ABA0A0319BB0A14
:08037400F003031DB22908008B
:10037C00D029803083160313D000E329C030D0007D
:10038C00E3299430D000E329D430D000E329803025
:10039C00D000E329831603135008013A0319BF292F
:1003AC005008023A0319C4295008033A0319C72903
:1003BC005008043A0319CA29CD295103F0005008FA
:1003CC00F0077008D0007008D7001A2083164F1061
:1003DC00D30153085207840000080319FD29530860
:1003EC00520784000008D400A520D30AEF294F142B
:0203FC000800F7
:1003FE00831603139816903083129800831687176E
:10040E00071383128C1E0E2A1A08F000082A080001
:10041E008316031388120812081088100811881109
:10042E0083128812081288110811881008100620ED
:10043E000620062088140814881603208812062029
:10044E00881603208812062088160320881206209C
:10045E00081088160320881206208816032088129A
:10046E008810881588160320881206208811081413
:10047E00881603208812081088160320881206207A
:10048E008816032088120814881603208812062066
:10049E000810881603208812881508158814081469
:0E04AE00881603208812062083164F140800BB
:1004BC000E240F220C30D7001A2001308316D700DF
:1004CC001A200317871388133330831603139900EC
:1004DC001815FF210D30FC00FB30FD00FD0B742ABC
:1004EC00FC0B742A000000008316BC01BD018312B2
:1004FC00EE01EF0101308316D0000130D100BE3087
:10050C00D200BE217A21013083160313D7001A20A2
:10051C0001308316D0000130D100BE30D200BE2194
:10052C00BE30D0002430D10012217008D000203011
:10053C00D100F22000307106031DA62A003070068F
:10054C00031D232BBE30D0002830D100122170089F
:10055C00D2000230D0000130D100BE210313BE30D6
:10056C00D0003830D10012217008D0003230D100C8
:10057C00F22000307106031DC52A003070060319E5
:10058C00232B7A21BE3083160313D0002C30D100DC
:10059C0012217008D0006830D100F22000307106B2
:1005AC00031DDA2A00307006031D222B0130D70000
:1005BC001A20BE308316D0006230D1001221700890
:1005CC00D2000230D0000130D100BE21BE30D000AC
:1005DC00D1011030D2000030D3003E210130D700C1
:1005EC001A207A2183120313EE01EF018030F00000
:1005FC0080306F067002031D052B6E080F3C031C28
:10060C00192B6E08103E8316D00083126E08BE3E66
:10061C00840000088316D100572183120313EE0ABD
:10062C000319EF0AFC2A8316BC0A0319BD0AD00170
:10063C003C08D1005721232BB42ABE300313D00021
:10064C005C30D10012217008D000A030D100F22013
:10065C0000307106031D342B00307006031D7A2BFD
:10066C00BE30D000B230D10012217008D20002305E
:10067C00D0000130D100BE21BE30D000AC30D10052
:10068C0012217008D000A630D100F2200030710683
:10069C00031D522B0030700603197A2B7A21BE30C1
:1006AC0083160313D0004A30D10012217008D000F9
:1006BC004430D100F22000307106031D672B00304E
:1006CC007006031D792B0130D7001A20BE3083161B
:1006DC00D0003E30D10012217008D2000230D00080
:1006EC000130D100BE21422BBE30D0005030D100A1
:1006FC0012217008D0005830D100F2200030710661
:10070C00031D8A2B00307006031D982BBE30D000C1
:10071C005430D10012217008D2000230D0000130C8
:10072C00D100BE21BE30D000D1011030D20000303B
:08073C00D3003E21802AA12B0D
:10081C00203084004E3083120313F000A73083166F
:10082C00BA000330BB00B221A0308400183003138F
:10083C00F000F5308316BA000330BB00B22108007B
:08074E0041344434443400340A
:08075600413444344434003402
:08075E004134443444340034FA
:0C076600533454344134523454340034C1
:0C077200533454344134523454340034B5
:0C077E00533454344134523454340034A9
:0C078A005334543441345234543400349D
:0C07960053345434413452345434003491
:0C07A20053345434413452345434003485
:0807AE0045344E34443400349C
:0807B60045344E344434003494
:0807BE0045344E34443400348C
:0C07C6004534523441345334453400347F
:0C07D20053345434413452345434003455
:0C07DE0053345434413452345434003449
:0C07EA004534523441345334453400345B
:0C07F60053345434413452345434003431
:0C08020053345434413452345434003424
:0C080E0045345234413453344534003436
:04400E00F22F000786
:00000001FF
