:02000000052ACF
:06000600000000000800EC
:0E000C00213083120313FD00FD0B0A280800AB
:10001A000F3083120313FC004730FD00FD0B132839
:0A002A00FC0B132800000000080082
:1000340083160313D31B21288312881123288312C8
:1000440088158316531B2928831208112B28831221
:1000540008158316D31A3128831288103328831283
:1000640088148316531A3928831208103B288312E4
:10007400081483164B184128831208164328831248
:1000840008128816032088128316D3194C28831269
:1000940088114E2883128815831653195428831205
:1000A40008115628831208158316D3185C28831266
:1000B40088105E28831288148316531864288312C8
:1000C400081066288312081483164B186C288312B0
:1000D40008166E28831208128816032088128316C5
:0C00E4004B1C76280D2077280620080011
:1000F000831603135008F2007208F000F20A700829
:1001000084000008031985287C2850087202F0003A
:0C0110000130F002F101031CF1030800B3
:10011C00831603135208F000D20370080319B62893
:10012C00500884000008003A0319A72851088400DD
:10013C000008F1005008840000087106031DA72870
:10014C00B328500884000008F0005108840000080F
:10015C00F002F101031CF103B828D00AD10A8E2851
:06016C00F001F1010800A2
:10017200831603134B105008D3001A2083164B1416
:02018200080073
:10018400831603135008840000085106031DCD286C
:100194005008F000D8285008F000D00A70088400F5
:0E01A4000008F0007008031DC228F0010800DA
:0E01B2008316031339088A00380882000800FB
:1001C000831603134C08003A03190A294C088400CB
:1001D000000803190A294D08D00078207008D200C1
:1001E0004C08D0004D08D1008E2000307106031D50
:1001F000FB2800307006031D00294C08F0000B2975
:100200004C0AD0004D0884000008D100C2207008BC
:08021000CC00E028F001080019
:100218001E29803083160313CC003129C030CC004E
:1002280031299430CC003129D430CC0031298030A8
:10023800CC003129831603134C08013A03190D2900
:100248004C08023A031912294C08033A03191529D4
:100258004C08043A031918291B294D03F0004C08CF
:10026800F0077008CC007008D3001A2083164B10D2
:10027800CF014F084E078400000803194B294F0887
:100288004E0784000008D000B920CF0A3D294B143E
:0202980008005C
:10029A00831203131A08F100981C5529181218160C
:0602AA007108F0000800DD
:1002B000831603134C088400000803196C294C08AA
:1002C00084000008F1004D08840071080006031D39
:1002D0006C29CC0ACD0A58294C0884000008F0008B
:1002E0004D0884000008F002F101031CF10308002E
:1002F000D9208A110A128000840AB80A0319B90A9F
:08030000F003031D7829080039
:100308008316031398169030831298008316871764
:10031800071383128C1E93291A08F0008D290800F0
:10032800831603134C08F2007208F100F20A4D0814
:10033800F000CD0A700884000008F00071088400FD
:10034800700880007108840000080319AC299829F6
:060358004C08F000080053
:10035E0083160313881208120810881008118811CA
:10036E0083128812081288110811881008100D20A7
:10037E000D200D20881408148816032088120D20D5
:10038E008816032088120D208816032088120D204F
:10039E0008108816032088120D2088160320881254
:1003AE00881088158816032088120D2088110814CD
:1003BE0088160320881208108816032088120D2034
:1003CE0088160320881208148816032088120D2020
:1003DE00081088160320881288150815881408142A
:0E03EE008816032088120D2083164B14080079
:0E03FC000030831203138C1A0130F000080049
:10040A00FA23AF210C30D3001A2001308316D3000F
:10041A001A20333083169900181584218230FC0083
:10042A00DD30FD00FD0B172AFC0B172A0000000027
:10043A008316C901CA018230FC00DD30FD00FD0BC4
:10044A00242AFC0B242A00000000FE21700803194C
:10045A003A2A4D217008EF0083164908BA3E8400F3
:10046A0070088000C90A0319CA0A8230FC00DD300C
:10047A00FD00FD0B3E2AFC0B3E2A00000000FE2177
:10048A007008031D522A003083164A06031D4F2A9C
:10049A00003049060319522A532A202A83160130AA
:1004AA00D3001A2001308316CC000130CD00BA30B7
:1004BA00CE000C21BA30CC002830CD00E0207008E4
:1004CA00CC002430CD00582100307106031D6F2A5C
:1004DA0000307006031DE82ABA30CC002030CD0067
:1004EA00E0207008CE000230CC000130CD000C2193
:1004FA00BA30CC002C30CD00E0207008CC003E3061
:10050A00CD00582100307106031D8D2A0030700677
:10051A000319E82AC901CA018230FC00DD30FD0056
:10052A00FD0B952AFC0B952A00000000FE2170089D
:10053A000319AB2A4D217008EF0083164908BA3E09
:10054A00840070088000C90A0319CA0A8230FC00B4
:10055A00DD30FD00FD0BAF2AFC0BAF2A00000000C6
:10056A00FE217008031DC32A003083164A06031DA4
:10057A00C02A003049060319C32AC42A912A8316BD
:10058A00BA30CC003830CD00E0207008CC003230D0
:10059A00CD00582100307106031DD52A003070069F
:1005AA00031DE72A0130D3001A20BA308316CC0083
:1005BA006930CD00E0207008CE000230CC00013056
:1005CA00CD000C217D2ABA30CC006330CD00E0206A
:1005DA007008CC005D30CD00582100307106031D33
:1005EA00F82A00307006031D682BBA30CC00A03000
:1005FA00CD00E0207008CE000230CC000130CD00E2
:10060A000C21BA30CC00B230CD00E0207008CC000A
:10061A00AC30CD00582100307106031D162B003076
:10062A0070060319682BC901CA018230FC00DD304B
:10063A00FD00FD0B1E2BFC0B1E2B00000000FE21F3
:10064A0070080319342B4D217008EF0083164908EE
:10065A00BA3E840070088000C90A0319CA0A8230A7
:10066A00FC00DD30FD00FD0B382BFC0B382B0000A5
:10067A000000FE217008031D432B442B1A2BBA30AD
:10068A008316CC00A630CD00E0207008CC004E3096
:10069A00CD00582100307106031D552B003070061D
:1006AA00031D672B0130D3001A20BA308316CC0001
:1006BA004830CD00E0207008CE000230CC00013076
:1006CA00CD000C21062BBA30CC004430CD00E020FE
:1006DA007008CC005430CD00582100307106031D3B
:1006EA00782B00307006031D862BBA30CC005930A7
:1006FA00CD00E0207008CE000230CC000130CD00E1
:10070A000C21BA30CC005830CD0094211D2A8C2BF4
:1007F400203084004F3083120313F00092308316AC
:10080400B8000330B9007821A03084001830F0001B
:0E081400E1308316B8000330B90078210800E7
:08072400413444344434003434
:08072C0041344434443400342C
:08073400413444344434003424
:0C073C00533454344134523454340034EB
:0C074800533454344134523454340034DF
:0C075400533454344134523454340034D3
:0C076000533454344134523454340034C7
:08076C0045344E3444340034DE
:0C077400533454344134523454340034B3
:0C078000533454344134523454340034A7
:08078C0045344E3444340034BE
:0207940000342F
:0807960045344E3444340034B4
:0C079E00453452344134533445340034A7
:0C07AA004534523441345334453400349B
:0C07B60053345434413452345434003471
:0C07C20045345234413453344534003483
:0C07CE0053345434413452345434003459
:0C07DA005334543441345234543400344D
:0C07E60053345434413452345434003441
:04400E00F22F000786
:00000001FF
