:02000000512D80
:1000060083120313FB01FA01F9018030F800F10CA9
:10001600F00C031C17287408F90775080318750FE8
:10002600FA070318FB0A0310F01F1F287408FA07C3
:1000360075080318750FFB07FB0CFA0CF90CF80C86
:10004600031C0A287B08F3007A08F2007908F100FD
:060056007808F00008002C
:10005C00831203174108393C031C3B283030410202
:0E006C00031C3B280130F0003C28F001080086
:10007A000F3083120313FC004730FD00FD0B4328A9
:0A008A00FC0B4328000000000800F2
:0E009400213083120313FD00FD0B4E280800DF
:0600A20000000000080050
:1000A800831203173A088D0083168C130C148312DD
:0600B8000C08F000080036
:1000BE00831203173A0884000008BB00BC0100300D
:1000CE00BC0000303C06031D6E2820303B06031991
:1000DE00792800303C06031D762809303B060319AB
:1000EE0079287B28BA0A5F28BD01BE01BF01C00175
:1000FE0000303C06031D85282D303B06031D8C2841
:10010E00BF0A0319C00ABA0A952800303C06031D1F
:10011E0092282B303B06031D9528BA0A3A08840014
:10012E000008BB00BC010030BC003B08C1002E2003
:10013E0070080319BE283D08F0003E08F1000A3091
:10014E00F4000030F5000320303003173B02F200BC
:10015E000030031C013E3C02F30072087007BD0024
:10016E0071080318013E7307BE00BA0A95283F08AE
:10017E0040040319CB283D08003CF0003E08031C48
:10018E00013EF101F102CF283D08F0003E08F100DA
:02019E00080057
:1001A000103083120317BA00542070080313EF00B5
:0A01B00070080317BA005F20080072
:1001BA0083120317B91BE42803138811E6280313D3
:1001CA0088150317391BEC2803130811EE280313AB
:1001DA0008150317B91AF42803138810F62803130D
:1001EA0088140317391AFC2803130810FE2803136E
:1001FA00081483166D180429831208160629831217
:10020A0008128816512088120317B9190F290313E7
:10021A00881111290313881503173919172903138C
:10022A0008111929031308150317B9181F290313ED
:10023A00881021290313881403173918272903134F
:10024A00081029290313081483166D182F298312FD
:10025A00081631298312081288165120881283162B
:0C026A006D1C39293D203A294A2008006B
:10027600831203173608840000083706031D462933
:100286003608F00051293608F000B60A70088400D6
:0E0296000008F0007008031D3B29F00108006D
:1002A400831203173808F000B803700803197A2979
:1002B400360884000008003A03196B2937088400C3
:1002C4000008F1003608840000087106031D6B293C
:1002D4007729360884000008F000370884000008F5
:1002E400F002F101031CF1037C29B60AB70A522972
:0602F400F001F101080019
:1002FA00831603136D10831203173608B900DD2025
:06030A0083166D140800CB
:10031000831203173608F2007208F000F20A700820
:1003200084000008031995298C2936087202F00010
:0C0330000130F002F101031CF103080091
:10033C00D020700890007008FF3A0319AA290130E8
:0E034C00F0000030F100AC29F001F1010800D2
:10035A00831203173208840000080319C1293208DE
:10036A0084000008F1003308840071080006031DA8
:10037A00C129B20AB30AAD29320884000008F00084
:10038A00330884000008F002F101031CF10308009D
:10039A00831203173208003A0319F7293208840036
:1003AA0000080319F7293308B60088217008B80035
:1003BA003208B6003308B700522100307106031D17
:1003CA00E82900307006031DED293208F000F829EB
:1003DA00320AB600330884000008B7003B217008CF
:0803EA00B200CD29F00108006A
:1003F2008030831203173306F00080307002031D31
:10040200042AA0303202031C092AF001F1010D2A4C
:0A0412000130F0000030F100080096
:10041C009E21700871040319272AD0200430F4009F
:10042C007008F2007108F30074080319222AF20D07
:10043C00F30D7210FF3E1B2A7208F0007308F100D6
:0C044C002B2A1030F0000030F1000800F6
:10045800831203173208203A03193D2A32080D3C4B
:10046800031C3B2A09303202031C3B2A3D2AF001B7
:080478003F2A0130F0000800EA
:10048000831203131A08F100981C482A1812181630
:060490007108F0000800F5
:0E0496000030831203138C1A0130F0000800AE
:1004A400642A803083120317B200772AC030B20066
:1004B400772A9430B200772AD430B200772A803079
:1004C400B200772A831203173208013A0319532A18
:1004D4003208023A0319582A3208033A03195B2AEC
:1004E4003208043A03195E2A612A3303F000320801
:1004F400F0077008B2007008B900DD2083166D1093
:1005040083120317B5013508340784000008031962
:10051400952A3508340784000008B6007D2183122B
:0E0524000317B50A852A831603136D14080009
:1005320083160313EA01EB011A30FC00F830FD00C8
:10054200FD0BA12AFC0BA12A00004B227008031903
:10055200B62A402270088316EC006A08153E840011
:1005620070088000EA0A0319EB0A0D30FC00FB3028
:10057200FD00FD0BBA2AFC0BBA2A000000004B2238
:100582007008031DCE2A003083166B06031DCB2A8A
:0E05920000306A060319CE2ACF2A9D2A0800DF
:1005A000153083120317B2005B30B300CD21700801
:1005B000B2005D30B300AD2100307106031DE22AA8
:1005C00000307006031DA72BAC01AD01AE01AF01D9
:1005D0000130B0000030B1000130B2000130B30092
:1005E0004D30B400522283120317A501A601153025
:1005F000B600882180302606F20080307106720233
:10060000031D042B7008250203187E2B2508153EB8
:1006100084000008C1002E2070080319222B00302E
:100620003106031D152B01303006031D222BAC0AA9
:100630000319AD0A0130B2000130B3002D30B4000F
:1006400052224B2B831203172508153E8400000805
:10065000B2002C22700803193F2B2D082606031D1B
:10066000332B25082C06031D3F2BB001B1010130AF
:10067000B2000130B3003430B40052224B2B0130B1
:1006800083120317B2000130B3002030B4005222AD
:10069000F001F101A92B0030831203173106031D6D
:1006A000532B00303006031D7A2B2508153E84009D
:1006B0000008C1002E2070080319772B0130B2000A
:1006C0000130B3002730B4005222831203172E08E2
:1006D0002B07F1002508153E84000008F000710882
:1006E000840070088000AE0A0319AF0A7A2BF0016B
:1006F000F101A92BA50A0319A60AF72A2B08BA00AB
:100700005F208030033AF200803071067202031DD0
:100710008B2B7008FF3C03189B2B2B08BA005F2023
:1007200000307106031D962B0030700603199B2BB9
:10073000F001F101A92B0130B2000130B3004730C4
:10074000B40052220130F0000030F100A92BF0017A
:04075000F1010800AB
:100754000E227008B2007108B300F9217008710408
:100764000319BA2B0E221030F0070318F10ABC2B20
:06077400F001F101080094
:10077A00831603178C1CC32B0000BD2B83122B0876
:10078A008D002C088C0083168C130C150B08F000B6
:10079A008B1355308D00AA308D008C14F01BD72B8B
:0A07AA008B13D82B8B170C110800DD
:1007B400AA2300307106031DE12B003070060319D3
:1007C400382CAA237008930771080318013E940774
:1007D4009922D0220030831203137106031DF42BD7
:1007E4000030700603192F2C0317A501A6018030D1
:1007F400F000803026067002031D022C25080F3CF1
:10080400031C122C25081307AB002508153E840091
:100814000008AC00BD238312A50A0319A60AF92B0C
:10082400D020700883160313EE007108EF00F00A5D
:100834000319F10A7008EE007108EF008312031720
:10084400AB017008AC00BD2301308312B20001304B
:10085400B3005330B4005222382C013083120317F2
:0E086400B2000130B3005630B400522208003A
:10087200831203172708F2002908F0002A08F10062
:100882000130A902031CAA037008710403194F2C3A
:100892007208840028088000F20A3D2C2708F00024
:0208A20008004C
:0E08A4008312031712088A0011088200080050
:1008B20083160313981690308312980083168717B5
:1008C200071383128C1E682C1A08F000622C080091
:1008D2008316031388120812081088100811881151
:1008E20083128812081288110811881008103D20FE
:1008F2003D203D20881408148816512088123D207E
:100902008816512088123D208816512088123D20D9
:1009120008108816512088123D208816512088120E
:10092200881088158816512088123D2088110814D5
:1009320088165120881208108816512088123D20EE
:1009420088165120881208148816512088123D20DA
:100952000810881651208812881508158814081462
:0E0962008816512088123D2083166D1408005F
:1009700069240C3083120317B900DD2001300317FE
:10098000B900DD2003178713881333308316031350
:100990009900181559240D30FC00FB30FD00FD0BAB
:1009A000CF2CFC0BCF2C0000000003179301940107
:0609B000A501A6010800EC
:1009B600153083120317B200BC30B300CD21700886
:1009C600B2006B30B300AD2100307106031DED2C73
:1009D60000307006031D442D1530B200A630B3005A
:1009E600CD217008B4000230B2000130B3005222AB
:1009F600153083120317B2006530B300CD2170089D
:100A0600B200A030B300AD2100307106031D0D2DDC
:100A1600003070060319442D9922153083120317EE
:100A2600B200B030B300CD217008B200B630B300CA
:100A3600AD2100307106031D222D00307006031D06
:100A4600432D0130B900DD2015300317B200AA305E
:100A5600B300CD217008B4000230B2000130B300FB
:100A66005222153083120317A700A8011030A900DF
:100A76000030AA0039240130B900DD20DA23442DE4
:040A8600FB2C08003D
:100A8A0052248A110A128000840A910A0319920ACE
:080A9A00F003031D452D0800C7
:100AA2009826B8240130B2000130B3001530B400EA
:100AB20052229922013083120317B900DD2001303E
:100AC2000317B2000130B3001530B40052223430A3
:100AD200FC00F130FD00FD0B6C2DFC0B6C2D0000B9
:100AE2000000DB24153083120317B2003B30B30041
:100AF200CD217008B2004130B300AD210030710643
:100B0200031D852D00307006031DCD2D1530B2005A
:100B12005F30B300CD217008B4000230B200013062
:100B2200B3005222153083120317B200CC30B30047
:100B3200CD217008B200D230B300AD210030710671
:100B4200031DA52D003070060319CD2D99221530F5
:100B520083120317B200C030B300CD217008B20077
:100B6200C630B300AD2100307106031DBA2D00302E
:100B72007006031DCC2D0130B900DD20153003179E
:100B8200B200E030B300CD217008B4000230B200F0
:100B92000130B3005222932D153083120317B20095
:100BA200E630B300CD217008B200D830B300AD21D9
:100BB20000307106031DDF2D00307006031DED2D80
:100BC2001530B200DC30B300CD217008B400023021
:100BD200B2000130B3005222153083120317A7006E
:100BE200A8011030A9000030AA003924532DF82D95
:100D3000203084004B3083120313F000FE30031781
:100D40009100053092004525A030840006308312C2
:100D5000F0008D30031791000630920045256B306E
:100D6000840004308312F0009330031791000630A2
:100D700092004525A630840044308312F0004930AB
:0C0D800003179100063092004525080082
:0E0BFC004434453442345534473434340034E4
:0C0C0A004434453442345534473400343F
:0E0C16004434453442345534473432340034CB
:0E0C24004434453442345534473433340034BC
:0C0C32004534523441345334453400340E
:0C0C3E0045345234413453344534003402
:0C0C4A00443445344234553447340034FF
:0C0C5600443445344234553447340034F3
:060C62004F344B34003456
:0A0C6800453452344F345234003446
:040C720020340034F6
:040C760020340034F2
:0C0C7A00453452344134533445340034C6
:0C0C86005334543441345234543400349C
:080C92004134443444340034C1
:0C0C9A0053345434413452345434003488
:0C0CA6005334543441345234543400347C
:0C0CB20053345434413452345434003470
:080CBE00413444344434003495
:0C0CC6005334543441345234543400345C
:0C0CD20053345434413452345434003450
:0C0CDE0053345434413452345434003444
:0C0CEA0053345434413452345434003438
:080CF60045344E34443400344F
:080CFE0045344E344434003447
:0C0D06005334543441345234543400341B
:080D120045344E344434003432
:0C0D1A0053345434413452345434003407
:080D260041344434443400342C
:04400E00F22F000786
:00000001FF
