:02000000432C8F
:1000060083120313FB01FA01F9018030F800F10CA9
:10001600F00C031C17287408F90775080318750FE8
:10002600FA070318FB0A0310F01F1F287408FA07C3
:1000360075080318750FFB07FB0CFA0CF90CF80C86
:10004600031C0A287B08F3007A08F2007908F100FD
:060056007808F00008002C
:10005C00831603136408393C031C3B2830306402BC
:0E006C00031C3B280130F0003C28F001080086
:10007A00831603135D0884000008DE00DF010030E8
:10008A00DF0000305F06031D4C2820305E0603198E
:10009A00572800305F06031D542809305E060319ED
:1000AA0057285928DD0A3D28E001E101E201E30170
:1000BA0000305F06031D63282D305E06031D6A2883
:1000CA00E20A0319E30ADD0A732800305F06031DFA
:1000DA0070282B305E06031D7328DD0A5D08840034
:1000EA000008DE00DF010030DF005E08E4002E2099
:1000FA00700803199C286008F0006108F1000A30B2
:10010A00F4000030F5000320303083165E02F2005E
:10011A000030031C013E5F02F30072087007E00022
:10012A0071080318013E7307E100DD0A73286208AB
:10013A0063040319A9286008003CF0006108031C45
:10014A00013EF101F102AD286008F0006108F100FA
:02015A0008009B
:10015C00831603135D08831203178D0083168C130B
:0A016C000C1483120C08F0000800C8
:10017600103083160313DD00AE20700883160313B8
:0A018600D0007008DD003D200800E5
:10019000BB207008B8007008FF3A0319D42801305A
:0E01A000F0000030F100D628F001F101080057
:0E01AE00213083120313FD00FD0BDB28080037
:1001BC000F3083120313FC004730FD00FD0BE428C5
:0A01CC00FC0BE4280000000008000E
:0601D6000000000008001B
:1001DC008030831603135C06F00080307002031D20
:1001EC00F928A0305B02031CFE28F001F101022962
:0A01FC000130F0000030F1000800AF
:1002060083160313DB1B0A29831288110C29831218
:10021600881583165B1B1229831208111429831271
:1002260008158316DB1A1A29831288101C298312D3
:10023600881483165B1A2229831208102429831234
:10024600081483164F182A29831208162C2983129C
:1002560008128816EB2088128316DB1935298312BB
:10026600881137298312881583165B193D29831255
:1002760008113F29831208158316DB1845298312B6
:10028600881047298312881483165B184D29831218
:1002960008104F298312081483164F185529831204
:1002A60008165729831208128816EB20881283161F
:0C02B6004F1C5F29DE206029D7200800C3
:1002C200C8207008710403197A29BB200430F40095
:1002D2007008F2007108F300740803197529F20D11
:1002E200F30D7210FF3E6E297208F0007308F100E0
:0C02F2007E291030F0000030F100080000
:1002FE00831203131A08F100981C87291812181676
:06030E007108F000080078
:0E0314000030831203138C1A0130F000080031
:10032200831603135A08F000DA0370080319B92977
:10033200580884000008003A0319AA2959088400C1
:100342000008F1005808840000087106031DAA295C
:10035200B629580884000008F000590884000008F3
:10036200F002F101031CF103BB29D80AD90A912931
:06037200F001F10108009A
:10037800831603135808840000085906031DC7296B
:100388005808F000D2295808F000D80A70088400EC
:0E0398000008F0007008031DBC29F0010800E9
:1003A600831603134F105808DB00032183164F14DE
:0203B60008003D
:1003B800831603135808F2007208F000F20A700856
:1003C800840000080319E929E02958087202F0009E
:0C03D8000130F002F101031CF1030800E9
:1003E40083160313BB01BC010D30FC00FB30FD0080
:1003F400FD0BFA29FC0BFA29000000008A21700881
:100404000319102A7F2170088316D1003B08BF3ED0
:10041400840070088000BB0A0319BC0A0D30FC007C
:10042400FB30FD00FD0B142AFC0B142A0000000015
:100434008A217008031D282A003083163C06031DF8
:10044400252A00303B060319282A292AF629080000
:1004540061217008DB007108DC00EE207008710473
:1004640003193A2A61211030F0070318F10A3C2AD3
:06047400F001F101080097
:10047A00831603178C1C432A00003D2A03135808CD
:10048A00831203178D008316031359088312031767
:10049A008C0083168C130C150B08F0008B13553047
:1004AA008D00AA308D008C14F01B5D2A8B135E2AF6
:0604BA008B170C11080075
:1004C0002A2200307106031D672A003070060319C6
:1004D000A12A2A2270088312EE0771080318013E30
:1004E000EF07F22183160313B901BA018030F0003F
:1004F00080303A067002031D7F2A39080F3C031C26
:10050000912A390883126E078316D8003908BF3E36
:1005100084000008D9003D220313B90A0319BA0A5E
:10052000762ABB207008BD007108BE00F00A0319CE
:10053000F10A7008BD007108BE00D8017008D9002A
:040540003D22080050
:10054400831603135408F2005608F0005708F1000C
:100554000130D602031CD703700871040319B82AAA
:100564007208840055088000F20AA62A5408F00094
:0205740008007D
:10057600831603135408840000080319CF2A54086D
:1005860084000008F1005508840071080006031D68
:10059600CF2AD40AD50ABB2A540884000008F000E2
:1005A600550884000008F002F101031CF10308005D
:1005B600ED2A803083160313D400002BC030D400FC
:1005C600002B9430D400002BD430D400002B803084
:1005D600D400002B831603135408013A0319DC2AAE
:1005E6005408023A0319E12A5408033A0319E42A83
:1005F6005408043A0319E72AEA2A5503F000540876
:10060600F0077008D4007008DB00032183164F1032
:10061600D701570856078400000803191A2B5708F4
:10062600560784000008D800D321D70A0C2B4F1494
:020636000800BA
:1006380083160313881208120810881008118811ED
:100648008312881208128811081188100810DE20F9
:10065800DE20DE20881408148816EB208812DE209D
:100668008816EB208812DE208816EB208812DE2000
:1006780008108816EB208812DE208816EB208812D6
:10068800881088158816EB208812DE208811081437
:100698008816EB20881208108816EB208812DE20B6
:1006A8008816EB20881208148816EB208812DE20A2
:1006B80008108816EB208812881508158814081465
:0E06C8008816EB208812DE2083164F140800DF
:0E06D6008316031353088A005208820008009E
:1006E400831603135408003A03199C2B54088400FE
:1006F400000803199C2B5508D800DC217008DA0087
:100704005408D8005508D900912100307106031D02
:100714008D2B00307006031D922B5408F0009D2B86
:10072400540AD800550884000008D900BC21700878
:08073400D400722BF001080053
:10073C00831603139816903083129800831687172C
:10074C00071383128C1EAD2B1A08F000A72B080080
:10075C001C230C30DB00032101308316DB0003214A
:10076C000317871388133330831603139900181556
:10077C009E230D30FC00FB30FD00FD0BC32BFC0B4E
:10078C00C32B00000000EE01EF018316B901BA0182
:02079C00080053
:10079E00BF3083160313D4003030D5007223700897
:1007AE00D4002C30D500BB2200307106031DE12B86
:1007BE0000307006031D362CBF30D4003430D50007
:1007CE0072237008D6000230D4000130D500DB222F
:1007DE0083160313BF30D4004430D5007223700843
:1007EE00D4003E30D500BB2200307106031D012C13
:1007FE00003070060319362CF221BF308316031316
:10080E00D4003830D50072237008D4002630D500BD
:10081E00BB2200307106031D162C00307006031D1E
:10082E00352C0130DB000321BF308316D40020307D
:10083E00D50072237008D6000230D4000130D500E6
:10084E00DB22BF30D400D5011030D6000030D700E7
:10085E00A2220130DB0003216022362CEF2B080090
:10086E006B238A110A128000840AD20A0319D30A52
:08087E00F003031D372C0800F4
:100886004625AE230130D4000130D500BF30D60056
:10089600DB22F221013083160313DB000321013032
:1008A6008316D4000130D500BF30D600DB22CF231B
:1008B600BF3083160313D4006830D5007223700846
:1008C600D400A030D500BB2200307106031D6D2C6C
:1008D60000307006031DB32CBF30D400B230D500F3
:1008E60072237008D6000230D4000130D500DB2216
:1008F600BF30D400AC30D50072237008D400A630C7
:10090600D500BB2200307106031D8B2C003070060B
:100916000319B32CF221BF3083160313D4006230BF
:10092600D50072237008D4005430D500BB220030A5
:100936007106031DA02C00307006031DB22C013079
:10094600DB000321BF308316D4004E30D50072235E
:100956007008D6000230D4000130D500DB227B2C93
:10096600BF30D4004A30D50072237008D4005A3004
:10097600D500BB2200307106031DC32C0030700663
:10098600031DD12CBF30D4005E30D5007223700811
:10099600D6000230D4000130D500DB22BF30D400AF
:1009A600D5011030D6000030D700A222452CDA2C13
:100A8C00203084004E3083120313F000E0308316C4
:100A9C00D2000430D3003724A030840018308312E5
:100AAC000313F0002E308316D2000530D300372408
:020ABC00080030
:0C09C00053345434413452345434003465
:0C09CC0053345434413452345434003459
:0809D80041344434443400347E
:0809E000413444344434003476
:0809E80041344434443400346E
:0C09F00053345434413452345434003435
:0C09FC0053345434413452345434003429
:0C0A08005334543441345234543400341C
:080A140045344E344434003433
:0C0A1C0053345434413452345434003408
:0C0A2800533454344134523454340034FC
:080A340045344E344434003413
:080A3C0045344E34443400340B
:0C0A4400533454344134523454340034E0
:0C0A5000453452344134533445340034F2
:0C0A5C00453452344134533445340034E6
:0C0A6800533454344134523454340034BC
:0C0A7400533454344134523454340034B0
:0C0A8000453452344134533445340034C2
:04400E00F22F000786
:00000001FF
