:02000000BC2A18
:0E000600213083120313FD00FD0B07280800B4
:100014000F3083120313FC004730FD00FD0B102842
:0A002400FC0B10280000000008008B
:06002E00000000000800C4
:1000340083120317A01B21280313881123280313F9
:1000440088150317201B2928031308112B280313D1
:1000540008150317A01A3128031388103328031333
:1000640088140317201A3928031308103B28031394
:1000740008140317121841280313081643280313FE
:1000840008128816172088120317A0194C28031386
:1000940088114E28031388150317201954280313B5
:1000A40008115628031308150317A0185C28031316
:1000B40088105E2803138814031720186428031378
:1000C4000810662803130814031712186C28031366
:1000D40008166E28031308128816172088120317AF
:0C00E400121C76280A2077280320080050
:1000F000063083120313FD00FD0B7C28000008006E
:10010000831203171D08F0009D0370080319A82827
:100110001B0884000008003A031999281C08840071
:100120000008F1001B08840000087106031D9928CF
:10013000A5281B0884000008F0001C0884000008A3
:10014000F002F101031CF103AA289B0A9C0A8028F3
:06015000F001F1010800BE
:10015600831203171B08840000081C06031DB6281B
:100166001B08F000C1281B08F0009B0A70088400D9
:0E0176000008F0007008031DAB28F00108001F
:10018400831203179B019D019E0110309F000430D0
:100194001E020318F228F0300313870003171F0907
:1001A400831603138700172017200F3083120705C7
:1001B400F000700803179C0070080319EC281D0850
:1001C4009B001C080319EA289C0C9C139B0AE32837
:1001D40004309E009F0D1F1004309D079E0AC928FD
:0601E4001B08F0000800FA
:0E01EA008312031715088A001408820008000B
:1001F800831203171B08F2007208F000F20A700855
:10020800840000080319092900291B087202F0005C
:0C0218000130F002F101031CF1030800AA
:10022400831203131A08F100981C1A2918121816BD
:060234007108F000080053
:10023A008312031712101B08A0001A2003171214A6
:02024A000800AA
:0E024C000030831203138C1A0130F0000800FA
:10025A008312031793010D30FC00FB30FD00FD0BE8
:10026A003429FC0B342900000000262170080319E8
:10027A004A29122170088316E4008312031713080F
:10028A00D43E840070088000930A0D30FC00FB30D5
:10029A00FD00FD0B4E29FC0B4E2900000000262113
:1002AA007008031D5E2903171308003A03195E2913
:0602BA005F293029080055
:1002C000831203171708003A03198A2917088400B4
:1002D000000803198A2918089B00FC2070089D005B
:1002E00017089B0018089C00802000307106031D31
:1002F0007B2900307006031D80291708F0008B2928
:10030000170A9B001808840000089C00AB207008A6
:0803100097006029F0010800CC
:10031800831203171708840000080319A029170877
:1003280084000008F1001808840071080006031D05
:10033800A029970A980A8C29170884000008F00059
:10034800180884000008F002F101031CF1030800FA
:100358008312031717088D0083168C130C1483124D
:060368000C08F000080083
:10036E00831203171708203A0319C82917080D3CE2
:10037E00031CC62909301702031CC629C829F0011F
:08038E00CA290130F00008004B
:10039600831603178C1CD1290000CB29831217085A
:1003A6008D0018088C0083168C130C150B08F000B2
:1003B6008B1355308D00AA308D008C14F01BE52967
:0A03C6008B13E6298B170C110800B9
:1003D000F5208A110A128000840A940A0319950AEA
:0803E000F003031DE8290800E9
:1003E800C220700897000F3003130705F0000319A7
:0E03F800FF297820F72903171708F0000800E6
:10040600152A8030831203179700282AC0309700D8
:10041600282A94309700282AD4309700282A80303A
:100426009700282A831203171708013A0319042A8A
:100436001708023A0319092A1708033A03190C2A5E
:100446001708043A03190F2A122A1803F00017088E
:10045600F007700897007008A0001A200317121002
:100466009A011A081907840000080319422A1A0873
:100476001907840000089B001D219A0A342A1214C9
:0204860008006C
:10048800831203171708F2001908F0001A08F10080
:1004980001309902031C9A037008710403195A2A3F
:1004A8007208840018088000F20A482A1708F00029
:0204B80008003A
:1004BA0083160313981690308312980083168717B1
:1004CA00071383128C1E6C2A1A08F000662A080089
:1004DA00831603138812081208108810081188114D
:1004EA0083128812081288110811881008100A202D
:1004FA000A200A20881408148816172088120A204D
:10050A008816172088120A208816172088120A20AF
:10051A0008108816172088120A20881617208812B1
:10052A00881088158816172088120A20881108143E
:10053A0088161720881208108816172088120A2091
:10054A0088161720881208148816172088120A207D
:10055A000810881617208812881508158814081498
:0E056A008816172088120A20031712140800A2
:100578005E26203083160317880089010130031393
:1005880089000130860090308B008312031787138F
:1005980088136D220C30A0001A2001300317A00028
:1005A8001A2033308316990018155D22EF0183163F
:1005B800E501013083120317970001309800D43009
:1005C800990003222D21013083120317A0001A205D
:1005D80001300317970001309800D43099000322A6
:1005E800D4309700523098006021700897004A3044
:1005F80098008C2100307106031D042B0030700612
:10060800031D1B2CD43097004E30980060217008D1
:100618009900023097000130980003220317D43064
:1006280097002C30980060217008970032309800AD
:100638008C2100307106031D232B0030700603192E
:100648001B2C2D21D43083120317970020309800DB
:10065800602170089700263098008C2100307106C0
:10066800031D382B00307006031D1A2C0130A00022
:100678001A20D4300317970044309800602170087E
:10068800990002309700013098000322D4309B0073
:10069800FC207008990071089A00D43097009801DE
:1006A80044220130A0001A202D218312031797013C
:1006B800AC2170080313EE008316E50183120317BB
:1006C8009301D4309B00FC208030F200803071060A
:1006D8007202031D712B700813020318A22B130852
:1006E800D43E84000008393C031C862B1308D43EF2
:1006F800840030300002031C862B0130831603135C
:10070800E5009E2B831203171308D43E84000008CB
:100718009700B721700803199A2B13080A3C031C89
:100728009A2B023083160313E5009E2B83160313BE
:10073800E501A22B83120317930A652B8316031373
:100748006508003A031DB52B013083120317970083
:10075800013098003830990003220130A0001A2097
:100768001B2C83120A306E02031CBF2B6E08FF3A43
:100778000319BF2B0E2C6E08FF3A031DC72B103030
:10078800EF00EE01D32B6E08F000F00D7010F00DA5
:100798007010F00D7010F00D70107008EF078316D0
:1007A800E501D430831203179B00FC208030F2004F
:1007B800803071067202031DE52B7008831603133F
:1007C80065020318FB2B83160313650883126F0752
:1007D80003179700831603136508D43E84000008A6
:1007E800831203179800CB210313E50AD52B0313B3
:1007F8008312EE0A0317970103136E080317980074
:10080800CB21013083129700013098003E309900C7
:1008180003221B2C03170130970001309800563033
:10082800990003220130A0001A201B2C122BD4306F
:1008380003179700B0309800602170089700B63011
:1008480098008C2100307106031D2C2C0030700696
:10085800031D222DD430970068309800602170085D
:100868009900023097000130980003228312D43097
:100878009700AA309800602170089700C830980047
:100888008C2100307106031D4B2C003070060319B3
:10089800222D2D21D430831203179700CE309800D3
:1008A800602170089700BC3098008C2100307106D8
:1008B800031D602C00307006031D212D0130A0009F
:1008C8001A20D43003179700C230980060217008AE
:1008D8009900023097000130980003220130A000EF
:1008E8001A20D43003179B00FC2070089900710867
:1008F8009A00D430970098014422E6309B00FC20EF
:100908007008990071089A00E6309700980144220F
:100918002D2183120317900110300313EF000317E2
:10092800100803136E02031C002D8316E501D43052
:10093800831203179B00FC208030F2008030710680
:100948007202031DAB2C700883160313650203188B
:10095800D82C831603136508E63E83120317960006
:1009680083160313650883126F0703179700AC21DA
:100978001608840070088000831603136508E63E95
:1009880084000008831203179700B7217008031921
:10099800D42C831603136508E63E84008001D82C06
:1009A80083160313E50A9B2CE6308312031797007E
:1009B800D4309800602170089700D43098008C21BA
:1009C80000307106031DEA2C00307006031DEF2C61
:1009D80014309000002DE6309B00FC207008990030
:1009E80071089A00E63097009801442210300313EA
:1009F800EF070317900A932C03171008143A031DE6
:100A0800202D83160313E5010F3065020318172DF7
:100A1800650883126F0703179700FF309800CB21F2
:100A28000313E50A082D8312EE0303179701031336
:100A38006E0803179800CB21222D3A2C0317D430C7
:100A4800831297005C30980060217008970060302E
:100A580098008C2100307106031D342D003070067B
:100A6800031DC52DD43097006430980060217008AC
:100A78009900023097000130980003220130A0004D
:100A88001A2001300317970001309800A030990010
:100A98000322F42170089100700803194D2D842D4C
:100AA80031309100C42D34309100C42D373091007D
:100AB800C42D63309100C42D32309100C42D3530DF
:100AC8009100C42D38309100C42D30309100C42DD0
:100AD80033309100C42D36309100C42D3930910047
:100AE800C42D24309100C42D25309100C42D21300F
:100AF8009100C42D23309100C42D2A309100C42DBB
:100B08001108013A0319542D1108023A0319572DF7
:100B18001108033A03195A2D1108043A03195D2DD7
:100B28001108053A0319602D1108063A0319632DB7
:100B38001108073A0319662D1108083A0319692D97
:100B48001108093A03196C2D11080A3A03196F2D77
:100B580011080B3A0319722D11080C3A0319752D57
:100B680011080D3A0319782D11080E3A03197B2D37
:100B780011080F3A03197E2D1108103A0319812D17
:100B8800422D0130A0001A20D43003179B00FC200E
:100B98007008990071089A00D4309700980144228F
:040BA800DD2AD52D40
:100CBC0020308400483083120313F000DB3003171C
:100CCC00940005309500E821A03084000A30F00033
:100CDC004D300317940006309500E82168308400ED
:100CEC000630F00057300317940006309500E821C9
:100CFC00AA3084002A30F000233003179400063009
:060D0C009500E82108003B
:0C0BB6005334543441345234543400346D
:0C0BC20053345434413452345434003461
:0C0BCE0053345434413452345434003455
:0C0BDA0053345434413452345434003449
:0C0BE6004534523452344F345234003441
:0C0BF2004F3420344B34203420340034C5
:0C0BFE0053345434413452345434003425
:080C0A00413444344434003449
:080C1200413444344434003441
:080C1A00413444344434003439
:0C0C22004534523452344F345234003404
:080C2E0045344E344434003417
:080C360045344E34443400340F
:080C3E0045344E344434003407
:0C0C4600533454344134523454340034DC
:0C0C5200453452344134533445340034EE
:0C0C5E00453452344134533445340034E2
:0C0C6A00533454344134523454340034B8
:0C0C7600533454344134523454340034AC
:0C0C8200533454344134523454340034A0
:0C0C8E0053345434413452345434003494
:100C9A0076346E34453473346934623472346F3462
:040CAA006A34003474
:0C0CAE0045345234413453344534003492
:04400E00F22F000786
:00000001FF
